:100000000C942A000C943F000C943F000C943F0089
:100010000C943F000C943F000C943F000C943F0064
:100020000C943F000C943F000C943F000C943F0054
:100030000C943F000C943F000C943F000C943F0044
:100040000C943F000C943F000C943F000C943F0034
:100050000C943F0011241FBECFE5D8E0DEBFCDBF1A
:1000600010E0A0E6B0E0E0EAF2E002C005900D92F8
:10007000A238B107D9F70E94B5000C944E010C9438
:10008000000010BC8CE089B988E18AB986E880BD9F
:1000900008955F9BFECF8CB108955D9BFECF8CB918
:1000A0000895FC0104C05D9BFECF8CB93196808120
:1000B0008823C9F708951ABA80E487B987E886B912
:1000C000089597B18770987F892B87B9369A3699AA
:1000D000FECF24B135B1C90108959AB321E030E0D3
:1000E000082E02C0220F331F0A94E2F7209529231D
:1000F0002ABB90EC97B997B1982B97B9379A369A53
:10010000349BFECF45B124B136983798942F80E0C8
:1001100030E0282B392BC90108959C01FB0168EEC2
:1001200073E00E943A01605D6383C90168EE73E089
:100130000E943A019C0164E670E00E943A01605D11
:100140006283C90164E670E00E943A019C016AE0A2
:1001500070E00E943A01605D6183C9016AE070E06D
:100160000E943A01805D80830895CF92DF92EF92E2
:10017000FF920F931F93DF93CF9300D000D0CDB7A2
:10018000DEB719821A821B821C821ABA80E487B9F0
:1001900087E886B910BC8CE089B988E18AB986E81D
:1001A00080BD04EC19E0C8010197F1F780E690E00A
:1001B0000E945100C8010197F1F77E010894E11CEB
:1001C000F11C9AE0C92E8DE0D82E09E110E080E004
:1001D0000E946100B7010E948D008CE690E00E94B1
:1001E00051008C815D9BFECF8CB98B815D9BFECFD6
:1001F0008CB98A815D9BFECF8CB989815D9BFECFD6
:100200008CB95D9BFECFCCB85D9BFECFDCB880E1A6
:1002100097E2F8013197F1F70197D9F719821A821D
:100220001B821C8281E00E946100B7010E948D0048
:1002300087E790E00E9451008C815D9BFECF8CB9D6
:100240008B815D9BFECF8CB98A815D9BFECF8CB983
:1002500089815D9BFECF8CB95D9BFECFCCB85D9B49
:10026000FECFDCB880E197E2F8013197F1F7019712
:10027000D9F7ADCFAA1BBB1B51E107C0AA1FBB1FFB
:10028000A617B70710F0A61BB70B881F991F5A9522
:10029000A9F780959095BC01CD010895F894FFCF02
:1002A00048656C6C6F5F4144430A0D004368616EA2
:1002B0006E656C5F313D004368616E6E656C5F32E8
:0202C0003D00FF
:00000001FF
