:100000000C942A000C9447000C9447000C94470071
:100010000C9447000C9447000C9447000C94470044
:100020000C9447000C9447000C9447000C94470034
:100030000C9447000C9447000C9447000C94470024
:100040000C9447000C9447000C9447000C94470014
:100050000C94470011241FBECFE5D8E0DEBFCDBF12
:1000600010E0A0E6B0E0E4EBF1E002C005900D92F4
:10007000AA36B107D9F710E0AAE6B0E001C01D9298
:10008000AB36B107E1F70E94AF000C94D8000C9496
:100090000000AB9A8AEF90E00197F1F7AB980895D2
:1000A00095B3807F9F70892B85BBAB9A8AEF90E0D8
:1000B0000197F1F7AB9808951F93182FAA9A0E9401
:1000C0005000812F8F701295107F812B0E9450005D
:1000D00086EA9EE00197F1F71F9108951F93182F6C
:1000E000AA980E94500085B31295107F8F70812BC3
:1000F00085BBAB9A8AEF90E00197F1F7AB9886EA5F
:100100009EE00197F1F71F9108950F931F938FEFD2
:1001100084BBAA98AB9804E214EFC8010197F1F7E9
:1001200088E20E94500088E20E946E008CE00E94EB
:100130006E008FE00E946E00C8010197F1F71F91D9
:100140000F910895CF93DF93EC0103C021960E9495
:100150005C0088818823D1F7DF91CF910895CF93F8
:10016000DF93D098D89A0E94850080E690E00E94A4
:10017000A200C9E1D0E0C89918C080EC0E946E00CE
:1001800080916A008F5F80936A008A3010F010922D
:100190006A0080916A00805D0E945C0088EB9BE0B1
:1001A000FE013197F1F70197D9F700000000E3CF86
:0401B000F894FFCFF1
:0A01B40048656C6C6F204156520044
:00000001FF
