:100000000C942A000C943F000C943F000C943F0089
:100010000C943F000C943F000C943F000C943F0064
:100020000C943F000C943F000C943F000C943F0054
:100030000C943F000C943F000C943F000C943F0044
:100040000C943F000C943F000C943F000C943F0034
:100050000C943F0011241FBECFE5D8E0DEBFCDBF1A
:1000600010E0A0E6B0E0E0E6F1E002C005900D92FD
:10007000AA36B107D9F70E94A7000C94AE000C94E1
:100080000000AB9A8AEF90E00197F1F7AB980895E2
:1000900095B3807F9F70892B85BBAB9A8AEF90E0E8
:1000A0000197F1F7AB9808951F93182FAA9A0E9411
:1000B0004800812F8F701295107F812B0E9448007D
:1000C00086EA9EE00197F1F71F9108951F93182F7C
:1000D000AA980E94480085B31295107F8F70812BDB
:1000E00085BBAB9A8AEF90E00197F1F7AB9886EA6F
:1000F0009EE00197F1F71F9108950F931F938FEFE3
:1001000084BBAA98AB9804E214EFC8010197F1F7F9
:1001100088E20E94480088E20E9466008CE00E940B
:1001200066008FE00E946600C8010197F1F71F91F9
:100130000F910895CF93DF93EC0103C021960E94A5
:10014000540088818823D1F7DF91CF9108950E94D0
:100150007D0080E690E00E949A00FFCFF894FFCFE8
:0A01600048656C6C6F204156520098
:00000001FF
