:1000000012C019C018C017C016C015C014C013C044
:1000100012C011C010C00FC00EC00DC00CC00BC06C
:100020000AC009C008C011241FBECFE5D4E0DEBF5E
:10003000CDBF36D017C1E4CF14BA80E487B987E8C2
:1000400086B9089597B18770987F892B87B9369ABA
:100050003699FECF24B135B1C90108959C01FB0149
:1000600068EE73E0D8D0605D6383C90168EE73E029
:10007000D2D09C0164E670E0CED0605D6283C9019D
:1000800064E670E0C8D09C016AE070E0C4D0605DB6
:100090006183C9016AE070E0BED0805D808308950D
:1000A000DF92EF92FF920F931F93CF93DF938FEF27
:1000B00087BB18BA81BB12BA14BA15BA14BA80E455
:1000C00087B987E886B9C8ECD0E0FF24FA9480E0CD
:1000D000B9DF8C0188EE93E0FE013197F1F70197CB
:1000E000D9F780E0AFDFE82ED92E88EE93E0FE014D
:1000F0003197F1F70197D9F780E0A4DFAC0188EEE2
:1001000093E0FE013197F1F70197D9F7C801F3E0C9
:10011000000F111FFA95E1F7880F991F080F191F9B
:100120008E2D9D2D9C0173E0220F331F7A95E1F7F0
:10013000880F991F280F391FCA01FA0153E0EE0FEB
:10014000FF1F5A95E1F7880F991FE80FF91FC901A2
:100150006FEF73E060D0462FC8016FEF73E05BD0A4
:10016000262F30E0240F311DCF016FEF73E053D005
:10017000C901860F911D63E070E061D06A3071059E
:1001800010F0F8BA1CC06930710521F4F8BAF2BA5F
:10019000C3989DCF6830710529F4F8BAF2BAC398B4
:1001A000C29895CF6730710531F4F8BAF2BAC398A6
:1001B000C298C1988CCF6630710519F418BAF2BA9A
:1001C00086CF6530710521F418BAF2BA97987FCFBF
:1001D0006430710529F418BAF2BA9798969877CFD7
:1001E0006330710531F418BA12BA929A939A949ABC
:1001F0006ECF6230710529F418BA12BA929A939AA6
:1002000066CF6115710521F018BA12BA929A5FCFC4
:1002100018BA12BA5CCFAA1BBB1B51E107C0AA1FB8
:10022000BB1FA617B70710F0A61BB70B881F991F97
:100230005A95A9F780959095BC01CD01089597FB3B
:10024000092E07260AD077FD04D0E5DF06D000206E
:100250001AF4709561957F4F0895F6F79095819502
:080260009F4F0895F894FFCFB1
:00000001FF
