:100000000C942A000C9447000C9447000C94470071
:100010000C9447000C9447000C9447000C94470044
:100020000C9447000C9447000C9447000C94470034
:100030000C9447000C9447000C9447000C94470024
:100040000C9447000C9447000C9447000C94470014
:100050000C94470011241FBECFE5D8E0DEBFCDBF12
:1000600010E0A0E6B0E0E6E7F5E002C005900D92F2
:10007000A03FB107D9F710E0A0EFB0E001C01D929A
:10008000A43FB107E1F70E9430020C94B9020C942E
:1000900000001F9388B38F6088BB60E070E0A0E42D
:1000A000B0E0E8E0F0E0162F87B3807887BB27B395
:1000B000CD01062E02C0959587950A94E2F7282B6C
:1000C00027BB40E050E086B39F01042E02C0359567
:1000D00027950A94E2F790E028233923232B09F08F
:1000E00048C09A01220F331F240F351FCB01C09641
:1000F000820F931F8533910571F1863391057CF44E
:100100008233910581F1833391051CF4C19769F520
:1001100028C08333910519F1C49739F51EC088337F
:100120009105A9F0893391051CF4C797F1F411C02A
:100130008933910551F08A33910519F0CB97A9F4D1
:1001400002C082E323C081E321C083E31FC084E3B4
:100150001DC085E31BC087E319C088E317C089E38E
:1001600015C080E313C08AE211C0812F805D820F29
:100170000DC04F5F5F4F4430510509F0A4CF6F5F52
:100180007F4F6430710509F08ECF8FEF1F91089576
:10019000AB9A8AEF90E00197F1F7AB98089595B389
:1001A000807F9F70892B85BBAB9A8AEF90E0019787
:1001B000F1F7AB9808951F93182FAA9A0E94CF00C9
:1001C000812F8F701295107F812B0E94CF0086EABD
:1001D0009EE00197F1F71F9108951F93182FAA9899
:1001E0000E94CF0085B31295107F8F70812B85BB45
:1001F000AB9A8AEF90E00197F1F7AB9886EA9EE020
:100200000197F1F71F9108950F931F938FEF84BB10
:10021000AA98AB9804E214EFC8010197F1F788E2BD
:100220000E94CF0088E20E94ED008CE00E94ED0069
:100230008FE00E94ED00C8010197F1F71F910F9127
:100240000895CF93DF93EC0103C021960E94DB0059
:1002500088818823D1F7DF91CF91089510BC8CE07D
:1002600089B988E18AB986E880BD08955F9BFECF91
:100270008CB108955D9BFECF8CB90895FC0104C03C
:100280005D9BFECF8CB9319680818823C9F7089594
:100290009C016AE070E00E94A502805D8093F000FE
:1002A000C9016AE070E00E94A502CB016AE070E03B
:1002B0000E94A502805D8093F100C90164E670E0B0
:1002C0000E94A502CB016AE070E00E94A502805D59
:1002D0008093F200C90168EE73E00E94A502CB0191
:1002E0006AE070E00E94A502805D8093F3000895AB
:1002F00084E886B980EC87B90895369A349BFECF9E
:1003000024B145B1942F80E030E0282B392BC9016E
:100310000895CF92DF92EF92FF920F931F93CF93A6
:10032000DF9381E00E94ED0080E690E00E942101D1
:1003300082EC0E94ED00EE24C8EAD1E699E1C92ED4
:10034000D12C03C00E944900E82E8E2D80538A30A4
:10035000C8F78AE20E94DB00CE010197F1F70E9404
:100360004900F82E8E15D9F303C00E944900F82EDB
:100370008F2D80538A30C8F78AE20E94DB00CE01BD
:100380000197F1F70E944900082F8F15D9F303C098
:100390000E944900082F802F80538A30C8F78AE2D4
:1003A0000E94DB00CE010197F1F70E944900182F4F
:1003B0008017D9F303C00E944900182F812F805362
:1003C0008A30C8F78AE20E94DB0081E3E81639F43C
:1003D00082E3F81621F4043311F41533D1F081E0EF
:1003E0000E94ED0081E790E00E94210180E197E208
:1003F000F6013197F1F70197D9F781E00E94ED00FE
:1004000080E690E00E94210182EC0E94ED00EE2443
:100410009CCF81E00E94ED0083E890E00E942101E2
:100420008FE890E00E943E0180E29EE429E130E006
:10043000F9013197F1F70197D9F781E00E94ED00BA
:1004400087EB90E00E94210182EC0E94ED00DF9199
:10045000CF911F910F91FF90EF90DF90CF90089573
:100460000F931F93CF93DF9310BC8CE089B988E181
:100470008AB986E880BD08EA11E6C8010197F1F75C
:100480000E940401C8010197F1F784E886B980EC65
:1004900087B985EC90E00E94210183EC0E94ED0079
:1004A00081ED90E00E94210180E29EE429E130E0AC
:1004B000F9013197F1F70197D9F781E00E94ED003A
:1004C0000E9489011AE00DE0C4EDD0E30E944900CA
:1004D0008A3231F48DED90E00E943E010E94890144
:1004E0000E947D010E94480182EC0E94ED008091F3
:1004F000F3000E94DB008091F2000E94DB008091FB
:10050000F1000E94DB008091F0000E94DB008091EE
:10051000F3005D9BFECF8CB98091F2005D9BFECF16
:100520008CB98091F1005D9BFECF8CB98091F00079
:100530005D9BFECF8CB95D9BFECF1CB95D9BFECF52
:100540000CB9CE010197F1F7C1CFAA1BBB1B51E13A
:1005500007C0AA1FBB1FA617B70710F0A61BB70B33
:10056000881F991F5A95A9F780959095BC01CD01D8
:060570000895F894FFCF8E
:10057600456E7465722050617373776F72642E2EA8
:100586000057726F6E672050617373776F72642EB7
:100596002E2E00556E6C6F636B65642E2E2E0053E7
:1005A600746574686F73636F706520697320205576
:1005B6006E6C6F636B6564205375636365737366F6
:1005C600756C6C790D0A0050726F63657373696E92
:1005D600672E2E2E00456C656374726F6E696320FC
:1005E6000053746574686F73636F70650053636F4F
:1005F6007065206973204C6F636B65640D0A00009B
:00000001FF
