:100000000C942B070C943D070C943D070C943D0772
:100010000C943D070C943D070C943D070C943D0750
:100020000C943D070C943D070C943D070C943D0740
:100030000C943D070C943D070C943D070C943D0730
:100040000C943D070C943D070C943D070C943D0720
:100050000C943D07FF0101010101010101030101B0
:10006000010101010101010301010101010101017E
:10007000010301010101010101010103010101016C
:100080000101010101AB01010101010101010103B4
:10009000010101010101010101030101010101014E
:1000A000010101030101010101010101010301013C
:1000B0000101010101010101FF0000F0F88C8CF841
:1000C000F00000FCFC0000FCFC000004FCFC44C44C
:1000D000FC380000FF0800000000000000080000DD
:1000E0000000000000000008000000000000000008
:1000F00000080000000000000000000800000000F0
:100100000000000008AA080000000000000000082D
:1001100000000000000000000008000000000000D7
:1001200000000008000000000000000000080000BF
:100130000000000000000008FF0000C72720C007E3
:100140000700000103060603010000040707000082
:1001500007070000FF200000000000000020000052
:10016000000000000000002000000000000000006F
:10017000002000000000000000000020000000003F
:100180000000000020AA2000000000000000002065
:10019000000000000000000000200000000000003F
:1001A000000000200000000000000000002000000F
:1001B0000000000000000020FF00001922221C00A7
:1001C0001E212121001E21211E00FF21211E001EB3
:1001D00029292E00FF8000800080008000C0008060
:1001E00000800080008000C00080008000800080CF
:1001F00000C0008000800080008000C0008000807F
:100200000080008000AA008000800080008000C084
:10021000008000800080008000C00080008000809E
:10022000008000C0008000800080008000C000804E
:100230000080008000800080FF0028202820280007
:1002400000000000000000000000000000000000AE
:1002500000000000FF00000000000000000100009E
:10026000000000000000000100000000000000008D
:10027000000100000000000000000001000000007C
:100280000000000000AA00000000000000000001C3
:10029000000000000000000000010000000000005D
:1002A000000000010000000000000000000100004C
:1002B0000000000000000000FF00100810201000E7
:1002C000000000000000000000000000000000002E
:1002D00000000000FF02000000000000000200001B
:1002E000000000000000000200000000000000000C
:1002F00000020000000000000000000200000000FA
:100300000000000002AA020000000000000000023D
:1003100000000000000000000002000000000000DB
:1003200000000002000000000000000000020000C9
:100330000000000000000002FF00000000000000BC
:1003400000000000000000000000000000000000AD
:1003500000000000FF08000000000000000800008E
:100360000000000000000008000000000000000085
:10037000000800000000000000000008000000006D
:100380000000000008AA08000000000000000008AB
:100390000000000000000000000800000000000055
:1003A000000000080000000000000000000800003D
:1003B0000000000000000008FF00007C1404007C26
:1003C0001468007C54440038444478000000000065
:1003D00000000000FF8080808080808080A080807E
:1003E00080808080808080A08080808080808080ED
:1003F00080A0808080808080808080A080808080BD
:100400008080808080AA808080808080808080A0A2
:10041000808080808080808080A0808080808080BC
:10042000808080A0808080808080808080A080808C
:100430008080808080808080FF00000000000000BD
:1004400000000000000000000000007C107C00485C
:100450006858000022080A0E2060040205060708FA
:10046000090203030508020402040704070707073B
:10047000070707070202070707080E090808080709
:10048000070908020708070B0809070909070808F0
:10049000090D0708080404040608030707060707F0
:1004A000050707020306020A0707070705060507EF
:1004B000070B0607050501050708000000000000FE
:1004C0000000FEFE18181E1E001E1E000000000088
:1004D00090F89E90F89E1C00001C0000183C26FF1F
:1004E00066CC88040C183C180C041C221CC0308EEE
:1004F000408000001804000C100C80CC7E72F2DEEC
:100500000C80000C1C1010101C0C1C101E1E000077
:10051000F0FC061C7CC006FCF0C07C1C14140E14FD
:10052000140000000000606060FCFC60606000007F
:10053000000C0C00000000005838C0C0C0C0000013
:1005400000000000181800C0380618040000F8FC6D
:100550000E060EFCF8040C1C181C0C04180CFEFEF5
:1005600000001C1C181C86C6663E1C181C1C181893
:100570001818888C062626FEDC040C1C18180C049F
:10058000C0E0B88CFEFE80040404041C1C04707ED1
:100590003E3636F6C60C1C1818180C04F8FC6E66AD
:1005A00066EECC040C1818181C0C060606E6761E1F
:1005B0000600001C1C0000009CFE666666FE9C0C8B
:1005C0001C1818181C0C3C7E666666FCF80C1C187F
:1005D000181C0C0418181818181858386060F0F017
:1005E00098980C0000000004040CD8D8D8D8D8D8AB
:1005F000D8000000000000000C9898F0F060600C3B
:10060000040400000000080C06C6E6763C18000052
:10061000001818000000E03008C4F63A1A1AF2FA7E
:100620007E0408F00C30604C9C98988C9C9C904800
:100630004C2000C0F8BE86BEF8C000181C0404049C
:1006400004041C18FEFE66666666FEDC1C1C181898
:1006500018181C0CF8FC0E06060E9C08040C1C183E
:10066000181C0C04FEFE0606060EFCF81C1C1818CE
:10067000181C0C04FEFE66666666661C1C181818BC
:100680001818FEFE66666666061C1C000000000068
:10069000F8FC0E0606C6CEDCC8040C1C1818181888
:1006A0000C04FEFE60606060FEFE1C1C000000008A
:1006B0001C1CFEFE1C1C8080000000FEFE0C1C1892
:1006C00018181C0CFEFE603078EC86021C1C000022
:1006D00000041C18FEFE00000000001C1C18181866
:1006E0001818FEFE0E7CE000E07C0EFEFE1C1C00D6
:1006F000000C1C0C00001C1CFEFE1C78E080FEFEA2
:100700001C1C0000040C1C1CF8FC0E0606060EFC4B
:10071000F8040C1C1818181C0C04FEFE6666667E95
:100720003C1C1C0000000000F8FC0E0686060EFCB7
:10073000F8040C1C18181C0C1C24FEFE6666E6E669
:10074000BE1C001C1C0000000C1C18103C7E6666C1
:1007500066EECC0C1C1818181C0C060606FEFE06CD
:1007600006060000001C1C000000FEFE0000000049
:10077000FEFE040C1C18181C0C04021EFCE000E019
:10078000FC1E020000001C1C1C00000006FEF800FD
:10079000F0FE0EFEF000F8FE0600001C1C1C00001F
:1007A000001C1C1C0000060EF8F0F80E06181C04B5
:1007B00000041C18060E38F0F0380E060000001C6D
:1007C0001C000000060686E6761E0E06181C1C1885
:1007D00018181818FEFE0606FCFCC0C00638C0003B
:1007E000000004180606FEFEC0C0FCFC20380E0EF9
:1007F00038200000000000000000000000000000A1
:100800008080808080808080020604000000109834
:10081000D858F8F0000C1C18180C1C10FEFE3018EC
:1008200038F0E01C1C0C181C0C04E0F018183830D0
:10083000040C18181C0CE0F0381830FEFE040C1CD8
:10084000180C1C1CE0F0D8D8D8F0E0040C181818CC
:10085000180818FCFE1A1A001C1C0000E0F03818DA
:1008600030F8F864ECDCD8CCFC7CFEFE301818F8CC
:10087000F01C1C0000001C1CFAFA1C1C00FAFAC038
:10088000FC7CFEFEE0F098081C1C00041C18FEFE18
:100890001C1CF8F81018F8F01818F8F01C1C0000D0
:1008A0001C1C00001C1CF8F8301818F8F01C1C0068
:1008B00000001C1CE0F0381838F0E0040C1C181C78
:1008C0000C04F8F8301838F0E0FCFC0C181C0C0490
:1008D000E0F0381830F8F8040C1C180CFCFCF8F8A0
:1008E0003018181C1C00000070F8D8D8D8900818D0
:1008F00018181C0C18FCFE1818000C1C1818F8F816
:10090000000000F8F80C1C18180C1C1C38F8C0006B
:10091000C0F83800001C1C1C000018F8E000F0387B
:10092000F000E0F81800001C1C0C000C1C1C00005F
:100930001838E0E03818181C04041C1818F8E000F7
:10094000E0F8180084FCF83C04001898D878381CAB
:100950001C18181880FC7E0606007CFCC0C0FEFC3B
:1009600006067EFC80C0C0FC7C0060303070606099
:100970003000000000000000FE020202020202FE3F
:100980001C1010101010101C163A0A0B20600302E5
:100990000206050709010304020502030105050417
:1009A00005040506050505050203050505040707F9
:1009B0000706080707070A05060907090A060709BF
:1009C00009060808080B09090703030403060204C3
:1009D00004040604060604030406030604040505CD
:1009E00004040404060807050603010405060000C4
:1009F00000000000803E000008060000A078AE78ED
:100A00002E08000000000000808CF2BF6200200071
:100A100000001C927E0CE2907000000000000000BC
:100A200070C8A8B86CBE02C201000000000000201F
:100A300000000800E018066080000000C33C402071
:100A400000000C0F000010107C10100000000000CF
:100A500000804020202020000000800000C0300CDA
:100A6000036000000000788482423C000000000027
:100A70008088FC8600000000C0C4A2924E000000E6
:100A80000000C080DA76000000002030A87E02005E
:100A9000000000008080844A320200000000000054
:100AA00070AC9472020000000000C4320A0602001A
:100AB00000000000E0AC926A060000000000809C8C
:100AC00052721C00000000008008000000800840F6
:100AD000200030304848480000000000282828281E
:100AE00028000000000048484830300000000000A6
:100AF0008036120C0000000070CCB4AABA621C0050
:100B000000000000000000804C322EFE8220000019
:100B100000000000382486FA8E8A7600000000006B
:100B20000000F08C0402820C002020200000384CD1
:100B300086EA9A82463C00000000000000003884EB
:100B4000E29E92BAC6000000000000001C86E29EF1
:100B5000123A0600000000000000708C8482D2323D
:100B600016008080C0200000C08CC23A1690F88623
:100B700001030000000000000000000080C0FA0631
:100B800002000000000000000CC23A066040402055
:100B900000008C82F21E788806020200000000002D
:100BA0002040404080C0B8848282C0000000000025
:100BB0000000809C621EF86090FC0E0000000000A7
:100BC00000000000800CE2120EF0700C02022020E7
:100BD000000000000000000078C48282463C000053
:100BE0000000000038CC86FA92120C0000000000D1
:100BF000000078C4828242261C00000000002060B1
:100C0000C080804038A486FA32D20C000000000078
:100C100000000060404080000C92E20E0020202086
:100C200000001C8682F28E02020300000000000019
:100C300000000C7A86808040300F00000000000029
:100C400000000C06FE4220100C0300000000000013
:100C500000000C06FE320804FE2010080700000009
:100C60000000000000000000008040221EF482010D
:100C7000012020000000000000001C0482C6BC8C83
:100C800002020100000000000000000080C0A692E7
:100C90008A86C20000000000000000F00FC0A00023
:100CA00007FC800000600000F10F80E000000402FB
:100CB00004000000000000000000404040404040B0
:100CC00001020000E090C8B800000000E09E493931
:100CD00000000000E090884800000000E09048F824
:100CE0004E01000000000000F0B0A8580000000015
:100CF00000907816010140200000000000E090887C
:100D0000E818E08080C06000E01ED1B9000000005B
:100D1000E038020000000090780280600000E03EB1
:100D2000E9190000000000604040E09C4200000023
:100D3000C838D038F098000000000000E818D0B89B
:100D400000000000F088C8380000000088F89048D3
:100D500038E080000000E09088E8180080C0A00023
:100D6000C838100800000000C098E8080000000023
:100D7000E89C884000000000E898E098000000002F
:100D80001008F88860180000000000001008F888BB
:100D900040F84038000000000000000080D058F00B
:100DA000100800000000002040601018F0C03880DB
:100DB0004020000080D8A898D8080000000000005B
:100DC000A0D807E08000FFE00000D12F80C0200005
:100DD00008081810100000000000FF81818181FFC9
:100DE0000000000000004865617274205261746563
:100DF0002C204543472057617665200A202020207B
:100E000020616E6420426C6F6F6420507265737352
:100E1000757265200A20202020202020204D656149
:100E2000737572656D656E7420556E6974004D65DD
:100E3000646963616C204C61620050617469656E25
:100E40007420232031003030300042503A00485F97
:100E5000526174653A0011241FBECFE5D8E0DEBFB1
:100E6000CDBF10E0A0E6B0E001C01D92A439B107EB
:100E7000E1F70E94D60E0C943C0F0C940000FC018C
:100E800084910895909393008093920070939100C1
:100E90006093900040938C0008950F931F93182F38
:100EA0008091920090919300E0919000F0919100D8
:100EB00004960995082F8091920090919300E091FB
:100EC0009000F091910005960995412F552747FD17
:100ED0005095202F30E042175307CCF0280F311DDA
:100EE00042175307A4F4101B212F332727FD3095F9
:100EF0002A5F3F4F8091920090919300E091900083
:100F0000F0919100820F931F09958F5F01C080E0DF
:100F10001F910F9108950F931F93CF93DF938C012F
:100F2000C0E0D0E006C00F5F1F4F0E944D07C80F02
:100F3000D11DF80180818823B1F7CE01DF91CF91D7
:100F40001F910F9108950F931F93CF93DF93EC019F
:100F500000E010E007C02196F90184910E944D073E
:100F6000080F111D9E01FE0184918823A1F7C8017D
:100F7000DF91CF911F910F910895DF93CF930F923F
:100F8000CDB7DEB71982AA9A000000000000AA9827
:100F9000198203C089818F5F898389818830D0F36A
:100FA0000F90CF91DF910895982F662319F4AC9894
:100FB000AB9A04C0613011F4AB98AC9AA898A99888
:100FC0008FEF87BB98BB0E94BD0718BA08951F9387
:100FD00087FD80E0603408F060E080938D006093CE
:100FE0008E0066956695669560938F00803410F448
:100FF00060E002C0805461E080640E94D4071091D8
:101000008F00186B812F60E00E94D407812F61E070
:101010000E94D4071F9108951F93DF93CF930F92DF
:10102000CDB7DEB718BA17BA90918D00903418F486
:10103000AC98AB9A02C0AB98AC9A903431F4882348
:1010400021F080E461E00E94D407A89AA99AAA9AA4
:1010500000000000000016B3AA98198203C089811D
:101060008F5F898389818830D0F38FEF87BB809130
:101070008D0060918E000E94E707809160008111D1
:101080001095812F0F90CF91DF911F91089581E0EE
:101090000E940C0880E00E940C080895EF92FF92D5
:1010A0000F931F93CF93DF93082F80918D0087FDBF
:1010B00063C0803418F4AC98AB9A02C0AB98AC9A79
:1010C000803419F461E00E94D407A89AA998FF24FB
:1010D000FA94F7BA10918E00177009F440C0E5B287
:1010E0000E944708E5BAF7BAC02FD0E0012F10E000
:1010F0009E01002E02C0220F331F0A94E2F7982FA0
:10110000922B809160008111909598BB0E94BD0741
:1011100060918E00685F80918D000E94E7070E94B9
:101120004708E5BA9FEF97BB28E030E0201B310B62
:1011300002C0D595C7952A95E2F7282F2C2B8091D0
:1011400060008111209528BB0E94BD0780918D0011
:1011500060918E0068508F5F0E94E7070CC08091FD
:1011600060008111009508BB0E94BD0780918D0031
:101170008F5F80938D0018BADF91CF911F910F91EF
:10118000FF90EF9008952F923F924F925F926F924F
:101190007F928F929F92AF92BF92CF92DF92EF9207
:1011A000FF920F931F93CF93DF93E82E80919200CD
:1011B00090919300E0919000F09191000396099531
:1011C000C82E8091920090919300E0919000F09150
:1011D000910004960995182F8091920090919300A8
:1011E000E0919000F091910005960995D82E5090CD
:1011F0008D0020908E002E2D332727FD3095812FD6
:1012000090E0281739070CF4A2C08D0D911D281706
:1012100039070CF09CC0E11A00E010E0FF24CE2D4D
:10122000DD27C7FDD09507C00696820F931F09954D
:10123000080F111DF3948F2D90E0209192003091B2
:101240009300E0919000F09191008C179D0764F35A
:10125000EC2CFF2447E050E0E40EF51EC70143E00C
:10126000959587954A95E1F749EF5FEFE40EF51EF6
:10127000382EAC01409FC001419F900D509F900DB2
:101280001124CD2CDD2446E050E0C40ED51EC80E3E
:10129000D91E2696C9018C0F9D1F0995682E08E05E
:1012A00010E00E191F097724882488E0A82EB12C9D
:1012B00042C0402EE601C80DD11D992423C0809163
:1012C000920090919300E0919000F09191008C0F2A
:1012D0009D1F0995982FEA14FB0444F490E0042C18
:1012E00002C0959587950A94E2F7982F80918C001B
:1012F0008F3F11F4892F02C0892F80950E944E08DC
:10130000939421969614D8F280918C008F3F11F41B
:1013100080E001C08FEF0E944E0860918E00685FF0
:10132000852D0E94E7077394860C88E090E0A80E54
:10133000B91E085F1F4F731408F4BBCF5394852D5B
:10134000860D622D0E94E70720E030E002C021E018
:1013500030E0C901DF91CF911F910F91FF90EF9085
:10136000DF90CF90BF90AF909F908F907F906F90C5
:101370005F904F903F902F9008950F931F93CF93BE
:10138000DF93EC0100918D0017C08A3091F4109129
:101390008E008091920090919300E0919000F091E6
:1013A000910003960995180F802F612F0E94E7077F
:1013B00002C00E94C3082196FE018491882329F768
:1013C000DF91CF911F910F9108950F931F93CF93AA
:1013D000DF93EC0100918D0017C08A3091F41091D9
:1013E0008E008091920090919300E0919000F09196
:1013F000910003960995180F802F612F0E94E7072F
:1014000002C00E94C30821968881882331F7DF91AA
:10141000CF911F910F9108950F931F93162F042FB3
:10142000687F0E94E7070E944708482F212F30E07D
:101430000F3F59F42770307081E090E002C0880FB0
:10144000991F2A95E2F7842B0BC02770307081E03A
:1014500090E002C0880F991F2A95E2F780958423B7
:101460000E944E081F910F910895AF92BF92CF92A4
:10147000DF92EF92FF920F931F93CF93DF93B82EDB
:10148000A42EE22EE394462F4770F62EF41ACE2DAA
:10149000D0E0642F70E028E030E0C901861B970B94
:1014A000C817D9075CF42C1B3D0B8FEF90E002C0EE
:1014B000959587952A95E2F70E2D03C008E0041B49
:1014C0008FEF90E002C0880F991F6A95E2F7D82E3F
:1014D0008B2D6F2D0E94E70710E0CD2CC0940E9449
:1014E0004708982F8C2D892390959D21892B0E9448
:1014F0004E081F5FA11698F710C088E0F80E8B2DDC
:101500006F2D0E94E70710E00E94470880950E9417
:101510004E081F5FA116C0F7085F202F30E0C901F9
:1015200007968C179D074CF30E1508F5C21BD30BBD
:101530008FEF90E002C0880F991FCA95E2F7E82E5E
:10154000E09488E0F80E8B2D6F2D0E94E70710E0E5
:101550000E2D00950E944708982F802F8923909583
:101560009E21892B0E944E081F5FA11698F7DF91DC
:10157000CF911F910F91FF90EF90DF90CF90BF9090
:10158000AF9008951F93182F80916000811741F04C
:1015900080E060E04FE72FE30E94350A109360007F
:1015A0001F9108959F92AF92BF92CF92DF92EF92D8
:1015B000FF920F931F93CF93DF93B82E942EE22EBA
:1015C000A02EE394462F4770F62EF41ACE2DD0E0CD
:1015D000642F70E028E030E0C901861B970BC81724
:1015E000D9075CF42C1B3D0B8FEF90E002C0959562
:1015F00087952A95E2F70E2D03C008E0041B8FEFB4
:1016000090E002C0880F991F6A95E2F7D82E8B2DC3
:101610006F2D0E94E70710E0CD2CC0940E94470870
:101620009FEFA91611F48D2901C08C210E944E084C
:101630001F5F911698F70EC088E0F80E8B2D6F2D66
:101640000E94E70710E08A2D0E944E081F5F911646
:10165000D0F7085F202F30E0C90107968C179D074F
:101660005CF30E1508F5C21BD30B8FEF90E002C0A0
:10167000880F991FCA95E2F7E82EE09498E0F90EDA
:101680008B2D6F2D0E94E70710E0FE2CF0940E9436
:1016900047089FEFA91611F48E2901C08F210E94DF
:1016A0004E081F5F911698F7DF91CF911F910F9110
:1016B000FF90EF90DF90CF90BF90AF909F900895F4
:1016C0000F9310928D0010928E0010928F008093D5
:1016D00060008FEF84BB8FE360E00E94D4078FE34C
:1016E00061E00E94D40780EC60E00E94D40780ECA7
:1016F00061E00E94D40780E060E04FE72FE300E064
:101700000E94D20A80E060E00E94E7070F910895EE
:101710002F923F924F925F926F927F928F929F9201
:10172000AF92BF92CF92DF92EF92FF920F931F93EF
:10173000DF93CF93CDB7DEB72C970FB6F894DEBF0B
:101740000FBECDBF8F83688749872A87C02EDD24CF
:10175000C601880F991F22273327281B390B3E8388
:101760002D832D5F3F4F3C872B873F80300E262EE9
:10177000200E342F8F81380F3B83301B3C839A859A
:10178000960F9983901B9A83432C522C632E792EAB
:10179000AA24BB24882499241C2D022D0C19842DE5
:1017A000602F4E2D0E940C0AF32CFC188F2D652DF6
:1017B0004E2D0E940C0A862D602F4E2D0E940C0A81
:1017C0000C810C0D802F652D4E2D0E940C0AFA8184
:1017D0001F0F862D612F4E2D0E940C0A802F672D22
:1017E0004E2D0E940C0A842D612F4E2D0E940C0A52
:1017F0008F2D672D4E2D0E940C0A2B853C8537FFBF
:1018000007C02A5F3F4F280D391D3C872B8715C025
:101810008B859C850A969C878B87C5018C199D09B1
:10182000880F991F880F991FEB85FC85E80FF91F1A
:10183000FC87EB870894C108D1080894A11CB11C4F
:101840004A945A946394739424E030E0820E931E79
:10185000CA14DB040CF0A0CF1D81F984F10E832D96
:1018600068854F2D20E00E2D0E94D20A832D6981BC
:101870004F2D20E00E94D20A3A85130F8F81622DEE
:1018800040E0212F0E94D20A8B81622D40E0212F5F
:101890000E94D20A2C960FB6F894DEBF0FBECDBFC1
:1018A000CF91DF911F910F91FF90EF90DF90CF903C
:1018B000BF90AF909F908F907F906F905F904F9070
:1018C0003F902F900895CF92DF92EF92FF920F9367
:1018D0001F93182FF62ED42EC22E20E00E94D20A7B
:1018E0006C2D6F0D812F4D2D20E00E94D20A812F8B
:1018F0006F2D40E02C2D0E94D20A8D2D810F6F2D6F
:1019000040E02C2D0E94D20A1F910F91FF90EF9082
:10191000DF90CF9008954F925F926F927F928F9257
:101920009F92AF92BF92CF92DF92EF92FF920F936E
:101930001F93CF93DF93D82EC62EF42EE22E502E77
:10194000841751F4261710F4E62EC22EEC188D2DB4
:101950006C2D40E02E2D0BC0621769F4481710F46F
:10196000FD2CD42EFD188D2D6C2D4F2D20E0052D36
:101970000E94D20AD6C0622F70E04C2D50E02F2D6D
:1019800030E0281B3109CB01841B950B821793078C
:1019900034F4461B570B421753070CF462C0FD1476
:1019A00030F48F2DFD2CD82E8E2DEC2CC82E4F2CE4
:1019B0004D18EE2DF0E02C2D30E04F01821A930AE5
:1019C000A42CBB2488EC90E0AC01849EC001859ED1
:1019D000900D949E900D1124B5010E94290FEB01EA
:1019E0000C2DFF2439016E1A7F0A8F2D90E08C9FF9
:1019F00090018D9F300D9C9F300D1124C90168EC22
:101A000070E00E94290F162F1C0DC90168EC70E0D0
:101A10000E94290F8436910514F01F5F05C05FEF07
:101A20008D3995070CF411504F2D4D0D842F602FDB
:101A3000212F052D0E948B0C8A149B042CF0CE14B0
:101A400018F4012F0F5F09C06A147B042CF0EC140A
:101A500018F4012F015001C0012FF3944F1428F600
:101A600060C0EC1428F48F2DFD2CD82EEC2CC62E43
:101A70004E2C4C18EF2DF0E02D2D30E04F01821A46
:101A8000930AA42CBB2488EC90E0AC01849EC00196
:101A9000859E900D949E900D1124B5010E94290FF2
:101AA000EB014D2DEE2439016E1A7F0A8E2D90E048
:101AB0008C9F90018D9F300D9C9F300D1124C9018A
:101AC00068EC70E00E94290F162F1D0DC90168EC0B
:101AD00070E00E94290F8436910514F01F5F05C045
:101AE0005FEF8D3995070CF411502E2D2C0D842F9E
:101AF000622F412F052D0E948B0C8A149B042CF021
:101B0000DF1418F4412F4F5F09C06A147B042CF0D6
:101B1000FD1418F4412F415001C0412FE3944E149D
:101B200028F6DF91CF911F910F91FF90EF90DF90FA
:101B3000CF90BF90AF909F908F907F906F905F906D
:101B40004F9008951ABA80E487B987E886B9089556
:101B500097B18770987F892B87B9369A3699FECFCF
:101B600024B135B1C90108959C01FB0168EE73E011
:101B70000E94150F605D6383C90168EE73E00E94E7
:101B8000150F9C0164E670E00E94150F605D628392
:101B9000C90164E670E00E94150F9C016AE070E0E4
:101BA0000E94150F605D6183C9016AE070E00E94C8
:101BB000150F805D80830895EF92FF920F931F931E
:101BC000CF93DF93F82EC9E6D0E00EE210E08DE36C
:101BD000E82E8F2D0E94A80D9093620080936100E3
:101BE0009C01209FC001219F900D309F900D1124DA
:101BF0006FEF73E00E94150F8E2D861B899330E0E6
:101C0000CC38D30731F7DF91CF911F910F91FF901F
:101C1000EF9008950F931F93CF93DF93C4E5D0E027
:101C200080E060E00E94E70708EC10E0FE012196EA
:101C3000E4918E2F0E944E08C8010197F1F784E0CD
:101C4000C435D80799F7DF91CF911F910F9108956F
:101C5000CF92DF92EF920F939FE3C92E97E0D92E98
:101C600084E594E0B6014FEF0E9442078FE06AE0FE
:101C70000E94E7078EE29EE00E94BD0985E065E0D4
:101C800045E724E108E0EE24EA940E94880B88E806
:101C900099E0B6014FEF0E94420785E06EE10E9495
:101CA000E70786EE9DE00E94BD090F91EF90DF905F
:101CB000CF9008950F938AE569E14EE12AE000E0B4
:101CC0000E94D20A8AE569E10E94E70780916800D4
:101CD0000E94C308809167000E94C308809166003B
:101CE0000E94C308809165000E94C3080F91089567
:101CF0000F9388E899E06FE377E04FEF0E94420787
:101D000080E060E04FE72FE300E00E94D20A84E623
:101D10008A95F1F780E56FE00E94E7078EE49EE088
:101D20000E94BD0980E565E20E94E7078AE49EE023
:101D30000E94BD0984E66FE20E94E70786E49EE008
:101D40000E94BD0981E06FE046E42EE20FEF0E94A1
:101D5000630C0F9108950F9381E06FE046E42EE24B
:101D600000E00E94D20A81E06FE046E42EE20FEF2D
:101D70000E94630C0F9108950F931F93CF93DF93ED
:101D80000E94AB0EC9E6D0E080E0182F1E5F68818C
:101D9000412F29810FEF0E948B0C2196812F143443
:101DA000A1F7DF91CF911F910F910895CF93DF930A
:101DB00080E00E94600B1ABA80E487B987E886B990
:101DC00080E29EE40197F1F70E94280E80E197E2FD
:101DD00028EC30E0F9013197F1F70197D9F70E942B
:101DE000780E84E594E06FE377E04FEF0E944207BE
:101DF00081E061E00E94E7078AE39EE00E94BD095E
:101E00000E94AB0E8BE490E065E670E00E94B40D9A
:101E10000E945A0EC0E4DCE980E00E94DC0D0E94C2
:101E2000BC0ECE010197F1F7F7CFAA1BBB1B51E106
:101E300007C0AA1FBB1FA617B70710F0A61BB70B3A
:101E4000881F991F5A95A9F780959095BC01CD01DF
:101E5000089597FB092E07260AD077FD04D0E5DF09
:101E600006D000201AF4709561957F4F0895F6F71B
:0C1E7000909581959F4F0895F894FFCF46
:00000001FF
