:100000000C942A000C943F000C943F000C943F0089
:100010000C943F000C943F000C943F000C943F0064
:100020000C943F000C943F000C943F000C943F0054
:100030000C943F000C943F000C943F000C943F0044
:100040000C943F000C943F000C943F000C943F0034
:100050000C943F0011241FBECFE5D8E0DEBFCDBF1A
:1000600010E0A0E6B0E0E0E1F1E002C005900D9202
:10007000AE36B107D9F70E945B000C9486000C9451
:10008000000010BC8CE089B988E18AB986E880BD9F
:1000900008955F9BFECF8CB108955D9BFECF8CB918
:1000A0000895FC0104C05D9BFECF8CB93196808120
:1000B0008823C9F7089510BC8CE089B988E18AB912
:1000C00086E880BD88EA91E60197F1F780E690E046
:1000D0000E94510080E197E229E130E0F901319777
:1000E000F1F70197D9F73BE52DE59CE25F9BFECF49
:1000F0008CB15D9BFECF3CB95D9BFECF8CB95D9B07
:10010000FECF2CB95D9BFECF9CB9F0CFF894FFCF0A
:0E01100048656C6C6F2055736172740D0A00A7
:00000001FF
