:100000000C942A000C9434000C9434000C943400AA
:100010000C9434000C9434000C9434000C94340090
:100020000C9434000C9434000C9434000C9436007E
:100030000C9434000C9434000C9434000C94340070
:100040000C9434000C9434000C9434000C94340060
:100050000C94340011241FBECFE5D8E0DEBFCDBF25
:100060000E944A000C9458000C9400001F920F92BA
:100070000FB60F9211248F939F938EEC82BF88B39B
:1000800094E0892788BB9F918F910F900FBE0F90AE
:100090001F90189511BA8FEF82BB87BB88BB8EEC7F
:1000A00082BF82E083BF89B7816089BF7894FFCF28
:0400B000F894FFCFF2
:00000001FF
