:1000000012C024C023C022C021C020C01FC01EC0F7
:100010001DC01CC01BC01AC019C018C017C016C014
:1000200015C014C013C011241FBECFE5D4E0DEBF3D
:10003000CDBF10E0A0E6B0E0E0EFF0E002C0059038
:100040000D92A838B107D9F71CD050C0D9CF10BC39
:100050008CE089B988E18AB986E880BD08955F9B04
:10006000FECF8CB108955D9BFECF8CB90895FC0145
:1000700004C05D9BFECF8CB9319680818823C9F77F
:1000800008958FEF87BB10BC8CE089B988E18AB9ED
:1000900086E880BD88EA91E60197F1F780E690E076
:1000A000E6DF6BE55DE54CE229E130E05F9BFECFEA
:1000B0008CB15D9BFECF6CB95D9BFECF8CB95D9B17
:1000C000FECF5CB95D9BFECF4CB9C59A80E197E24B
:1000D000F9013197F1F70197D9F7C59880E197E2D7
:1000E000F9013197F1F70197D9F7E0CFF894FFCFF5
:1000F00048656C6C6F205573617274206174203494
:10010000383030207769746820314D687A20437226
:08011000797374616C0D0A00A3
:00000001FF
