:100000000C942A000C943C000C943C000C943C0092
:100010000C943C000C943C000C943C000C943C0070
:100020000C943C000C943C000C943C000C943C0060
:100030000C943C000C943C000C943C000C943C0050
:100040000C943C000C943C000C943C000C943C0040
:100050000C943C0011241FBECFE5D8E0DEBFCDBF1D
:1000600010E0A0E6B0E001C01D92A136B107E1F7B3
:100070000E9455000C9462000C94000085E88DBD30
:100080008EEE8CBD1FBC84E08EBD80E005C08299E1
:1000900003C08F5F829BFECF08B602FEF8CF80932D
:1000A00060001EBC84E088BF089511BA8FEF82BB48
:1000B00087BB88BB84BB85BB8091600088BB0E94E6
:0800C0003E00FACFF894FFCFD7
:00000001FF
