:100000000C942A000C9434000C9434000C943400AA
:100010000C9434000C9434000C9434000C94340090
:100020000C9434000C9434000C9434000C94340080
:100030000C9434000C9434000C9434000C94340070
:100040000C9434000C9434000C9434000C94340060
:100050000C94340011241FBECFE5D8E0DEBFCDBF25
:100060000E9473000C947B000C940000CF93DF93EC
:1000700088B38F6088BB60E070E0C0E4D0E0A8E0A7
:10008000B0E0E62F87B3807887BB27B3CE01062E7A
:1000900002C0959587950A94E2F7282B27BB40E08C
:1000A00050E086B39D01042E02C0359527950A9431
:1000B000E2F790E028233923232B39F4CA01880F73
:1000C000991F840F951F8E0F0BC04F5F5F4F4430F9
:1000D000510539F76F5F7F4F6430710591F68FEFEF
:1000E000DF91CF9108958FEF81BB82BB0E943600D4
:0A00F0008F3FE1F3FACFF894FFCF41
:00000001FF
