:100000000C9433070C9445070C9445070C94450752
:100010000C9445070C9445070C9445070C94450730
:100020000C9445070C9445070C9445070C94450720
:100030000C9445070C9445070C9445070C94450710
:100040000C9445070C9445070C9445070C94450700
:100050000C944507FF0101010101010101030101A8
:10006000010101010101010301010101010101017E
:10007000010301010101010101010103010101016C
:100080000101010101AB01010101010101010103B4
:10009000010101010101010101030101010101014E
:1000A000010101030101010101010101010301013C
:1000B0000101010101010101FF0000F0F88C8CF841
:1000C000F00000FCFC0000FCFC000004FCFC44C44C
:1000D000FC380000FF0800000000000000080000DD
:1000E0000000000000000008000000000000000008
:1000F00000080000000000000000000800000000F0
:100100000000000008AA080000000000000000082D
:1001100000000000000000000008000000000000D7
:1001200000000008000000000000000000080000BF
:100130000000000000000008FF0000C72720C007E3
:100140000700000103060603010000040707000082
:1001500007070000FF200000000000000020000052
:10016000000000000000002000000000000000006F
:10017000002000000000000000000020000000003F
:100180000000000020AA2000000000000000002065
:10019000000000000000000000200000000000003F
:1001A000000000200000000000000000002000000F
:1001B0000000000000000020FF00001922221C00A7
:1001C0001E212121001E21211E00FF21211E001EB3
:1001D00029292E00FF8000800080008000C0008060
:1001E00000800080008000C00080008000800080CF
:1001F00000C0008000800080008000C0008000807F
:100200000080008000AA008000800080008000C084
:10021000008000800080008000C00080008000809E
:10022000008000C0008000800080008000C000804E
:100230000080008000800080FF0028202820280007
:1002400000000000000000000000000000000000AE
:1002500000000000FF00000000000000000100009E
:10026000000000000000000100000000000000008D
:10027000000100000000000000000001000000007C
:100280000000000000AA00000000000000000001C3
:10029000000000000000000000010000000000005D
:1002A000000000010000000000000000000100004C
:1002B0000000000000000000FF00100810201000E7
:1002C000000000000000000000000000000000002E
:1002D00000000000FF02000000000000000200001B
:1002E000000000000000000200000000000000000C
:1002F00000020000000000000000000200000000FA
:100300000000000002AA020000000000000000023D
:1003100000000000000000000002000000000000DB
:1003200000000002000000000000000000020000C9
:100330000000000000000002FF00000000000000BC
:1003400000000000000000000000000000000000AD
:1003500000000000FF08000000000000000800008E
:100360000000000000000008000000000000000085
:10037000000800000000000000000008000000006D
:100380000000000008AA08000000000000000008AB
:100390000000000000000000000800000000000055
:1003A000000000080000000000000000000800003D
:1003B0000000000000000008FF00007C1404007C26
:1003C0001468007C54440038444478000000000065
:1003D00000000000FF8080808080808080A080807E
:1003E00080808080808080A08080808080808080ED
:1003F00080A0808080808080808080A080808080BD
:100400008080808080AA808080808080808080A0A2
:10041000808080808080808080A0808080808080BC
:10042000808080A0808080808080808080A080808C
:100430008080808080808080FF00000000000000BD
:1004400000000000000000000000007C107C00485C
:100450006858000022080A0E2060040205060708FA
:10046000090203030508020402040704070707073B
:10047000070707070202070707080E090808080709
:10048000070908020708070B0809070909070808F0
:10049000090D0708080404040608030707060707F0
:1004A000050707020306020A0707070705060507EF
:1004B000070B0607050501050708000000000000FE
:1004C0000000FEFE18181E1E001E1E000000000088
:1004D00090F89E90F89E1C00001C0000183C26FF1F
:1004E00066CC88040C183C180C041C221CC0308EEE
:1004F000408000001804000C100C80CC7E72F2DEEC
:100500000C80000C1C1010101C0C1C101E1E000077
:10051000F0FC061C7CC006FCF0C07C1C14140E14FD
:10052000140000000000606060FCFC60606000007F
:10053000000C0C00000000005838C0C0C0C0000013
:1005400000000000181800C0380618040000F8FC6D
:100550000E060EFCF8040C1C181C0C04180CFEFEF5
:1005600000001C1C181C86C6663E1C181C1C181893
:100570001818888C062626FEDC040C1C18180C049F
:10058000C0E0B88CFEFE80040404041C1C04707ED1
:100590003E3636F6C60C1C1818180C04F8FC6E66AD
:1005A00066EECC040C1818181C0C060606E6761E1F
:1005B0000600001C1C0000009CFE666666FE9C0C8B
:1005C0001C1818181C0C3C7E666666FCF80C1C187F
:1005D000181C0C0418181818181858386060F0F017
:1005E00098980C0000000004040CD8D8D8D8D8D8AB
:1005F000D8000000000000000C9898F0F060600C3B
:10060000040400000000080C06C6E6763C18000052
:10061000001818000000E03008C4F63A1A1AF2FA7E
:100620007E0408F00C30604C9C98988C9C9C904800
:100630004C2000C0F8BE86BEF8C000181C0404049C
:1006400004041C18FEFE66666666FEDC1C1C181898
:1006500018181C0CF8FC0E06060E9C08040C1C183E
:10066000181C0C04FEFE0606060EFCF81C1C1818CE
:10067000181C0C04FEFE66666666661C1C181818BC
:100680001818FEFE66666666061C1C000000000068
:10069000F8FC0E0606C6CEDCC8040C1C1818181888
:1006A0000C04FEFE60606060FEFE1C1C000000008A
:1006B0001C1CFEFE1C1C8080000000FEFE0C1C1892
:1006C00018181C0CFEFE603078EC86021C1C000022
:1006D00000041C18FEFE00000000001C1C18181866
:1006E0001818FEFE0E7CE000E07C0EFEFE1C1C00D6
:1006F000000C1C0C00001C1CFEFE1C78E080FEFEA2
:100700001C1C0000040C1C1CF8FC0E0606060EFC4B
:10071000F8040C1C1818181C0C04FEFE6666667E95
:100720003C1C1C0000000000F8FC0E0686060EFCB7
:10073000F8040C1C18181C0C1C24FEFE6666E6E669
:10074000BE1C001C1C0000000C1C18103C7E6666C1
:1007500066EECC0C1C1818181C0C060606FEFE06CD
:1007600006060000001C1C000000FEFE0000000049
:10077000FEFE040C1C18181C0C04021EFCE000E019
:10078000FC1E020000001C1C1C00000006FEF800FD
:10079000F0FE0EFEF000F8FE0600001C1C1C00001F
:1007A000001C1C1C0000060EF8F0F80E06181C04B5
:1007B00000041C18060E38F0F0380E060000001C6D
:1007C0001C000000060686E6761E0E06181C1C1885
:1007D00018181818FEFE0606FCFCC0C00638C0003B
:1007E000000004180606FEFEC0C0FCFC20380E0EF9
:1007F00038200000000000000000000000000000A1
:100800008080808080808080020604000000109834
:10081000D858F8F0000C1C18180C1C10FEFE3018EC
:1008200038F0E01C1C0C181C0C04E0F018183830D0
:10083000040C18181C0CE0F0381830FEFE040C1CD8
:10084000180C1C1CE0F0D8D8D8F0E0040C181818CC
:10085000180818FCFE1A1A001C1C0000E0F03818DA
:1008600030F8F864ECDCD8CCFC7CFEFE301818F8CC
:10087000F01C1C0000001C1CFAFA1C1C00FAFAC038
:10088000FC7CFEFEE0F098081C1C00041C18FEFE18
:100890001C1CF8F81018F8F01818F8F01C1C0000D0
:1008A0001C1C00001C1CF8F8301818F8F01C1C0068
:1008B00000001C1CE0F0381838F0E0040C1C181C78
:1008C0000C04F8F8301838F0E0FCFC0C181C0C0490
:1008D000E0F0381830F8F8040C1C180CFCFCF8F8A0
:1008E0003018181C1C00000070F8D8D8D8900818D0
:1008F00018181C0C18FCFE1818000C1C1818F8F816
:10090000000000F8F80C1C18180C1C1C38F8C0006B
:10091000C0F83800001C1C1C000018F8E000F0387B
:10092000F000E0F81800001C1C0C000C1C1C00005F
:100930001838E0E03818181C04041C1818F8E000F7
:10094000E0F8180084FCF83C04001898D878381CAB
:100950001C18181880FC7E0606007CFCC0C0FEFC3B
:1009600006067EFC80C0C0FC7C0060303070606099
:100970003000000000000000FE020202020202FE3F
:100980001C1010101010101C163A0A0B20600302E5
:100990000206050709010304020502030105050417
:1009A00005040506050505050203050505040707F9
:1009B0000706080707070A05060907090A060709BF
:1009C00009060808080B09090703030403060204C3
:1009D00004040604060604030406030604040505CD
:1009E00004040404060807050603010405060000C4
:1009F00000000000803E000008060000A078AE78ED
:100A00002E08000000000000808CF2BF6200200071
:100A100000001C927E0CE2907000000000000000BC
:100A200070C8A8B86CBE02C201000000000000201F
:100A300000000800E018066080000000C33C402071
:100A400000000C0F000010107C10100000000000CF
:100A500000804020202020000000800000C0300CDA
:100A6000036000000000788482423C000000000027
:100A70008088FC8600000000C0C4A2924E000000E6
:100A80000000C080DA76000000002030A87E02005E
:100A9000000000008080844A320200000000000054
:100AA00070AC9472020000000000C4320A0602001A
:100AB00000000000E0AC926A060000000000809C8C
:100AC00052721C00000000008008000000800840F6
:100AD000200030304848480000000000282828281E
:100AE00028000000000048484830300000000000A6
:100AF0008036120C0000000070CCB4AABA621C0050
:100B000000000000000000804C322EFE8220000019
:100B100000000000382486FA8E8A7600000000006B
:100B20000000F08C0402820C002020200000384CD1
:100B300086EA9A82463C00000000000000003884EB
:100B4000E29E92BAC6000000000000001C86E29EF1
:100B5000123A0600000000000000708C8482D2323D
:100B600016008080C0200000C08CC23A1690F88623
:100B700001030000000000000000000080C0FA0631
:100B800002000000000000000CC23A066040402055
:100B900000008C82F21E788806020200000000002D
:100BA0002040404080C0B8848282C0000000000025
:100BB0000000809C621EF86090FC0E0000000000A7
:100BC00000000000800CE2120EF0700C02022020E7
:100BD000000000000000000078C48282463C000053
:100BE0000000000038CC86FA92120C0000000000D1
:100BF000000078C4828242261C00000000002060B1
:100C0000C080804038A486FA32D20C000000000078
:100C100000000060404080000C92E20E0020202086
:100C200000001C8682F28E02020300000000000019
:100C300000000C7A86808040300F00000000000029
:100C400000000C06FE4220100C0300000000000013
:100C500000000C06FE320804FE2010080700000009
:100C60000000000000000000008040221EF482010D
:100C7000012020000000000000001C0482C6BC8C83
:100C800002020100000000000000000080C0A692E7
:100C90008A86C20000000000000000F00FC0A00023
:100CA00007FC800000600000F10F80E000000402FB
:100CB00004000000000000000000404040404040B0
:100CC00001020000E090C8B800000000E09E493931
:100CD00000000000E090884800000000E09048F824
:100CE0004E01000000000000F0B0A8580000000015
:100CF00000907816010140200000000000E090887C
:100D0000E818E08080C06000E01ED1B9000000005B
:100D1000E038020000000090780280600000E03EB1
:100D2000E9190000000000604040E09C4200000023
:100D3000C838D038F098000000000000E818D0B89B
:100D400000000000F088C8380000000088F89048D3
:100D500038E080000000E09088E8180080C0A00023
:100D6000C838100800000000C098E8080000000023
:100D7000E89C884000000000E898E098000000002F
:100D80001008F88860180000000000001008F888BB
:100D900040F84038000000000000000080D058F00B
:100DA000100800000000002040601018F0C03880DB
:100DB0004020000080D8A898D8080000000000005B
:100DC000A0D807E08000FFE00000D12F80C0200005
:100DD00008081810100000000000FF81818181FFC9
:100DE0000000000000004865617274205261746563
:100DF0002C204543472057617665200A202020207B
:100E000020616E6420426C6F6F6420507265737352
:100E1000757265200A20202020202020204D656149
:100E2000737572656D656E7420556E6974004D65DD
:100E3000646963616C204C61620050617469656E25
:100E400074202320310050617469656E7420232062
:100E500031003030300042503A0030303000485FCE
:100E6000526174653A0011241FBECFE5D8E0DEBFA1
:100E7000CDBF10E0A0E6B0E001C01D92A936B107D9
:100E8000E1F70E94FA0D0C94940E0C940000FC0102
:100E90008491089590936800809367007093660032
:100EA000609365004093610008950F931F93182F7E
:100EB0008091670090916800E0916500F091660074
:100EC00004960995082F8091670090916800E09141
:100ED0006500F091660005960995412F552747FD5D
:100EE0005095202F30E042175307CCF0280F311DCA
:100EF00042175307A4F4101B212F332727FD3095E9
:100F00002A5F3F4F8091670090916800E0916500F3
:100F1000F0916600820F931F09958F5F01C080E0FA
:100F20001F910F9108950F931F93CF93DF938C011F
:100F3000C0E0D0E006C00F5F1F4F0E945507C80FEA
:100F4000D11DF80180818823B1F7CE01DF91CF91C7
:100F50001F910F9108950F931F93CF93DF93EC018F
:100F600000E010E007C02196F90184910E94550726
:100F7000080F111D9E01FE0184918823A1F7C8016D
:100F8000DF91CF911F910F910895DF93CF930F922F
:100F9000CDB7DEB71982AA9A000000000000AA9817
:100FA000198203C089818F5F898389818830D0F35A
:100FB0000F90CF91DF910895982F662319F4AC9884
:100FC000AB9A04C0613011F4AB98AC9AA898A99878
:100FD0008FEF87BB98BB0E94C50718BA08951F936F
:100FE00087FD80E0603408F060E0809362006093E9
:100FF000630066956695669560936400803410F48E
:1010000060E002C0805461E080640E94DC071091BF
:101010006400186B812F60E00E94DC07812F61E083
:101020000E94DC071F9108951F93DF93CF930F92C7
:10103000CDB7DEB718BA17BA90916200903418F4A1
:10104000AC98AB9A02C0AB98AC9A903431F4882338
:1010500021F080E461E00E94DC07A89AA99AAA9A8C
:1010600000000000000016B3AA98198203C089810D
:101070008F5F898389818830D0F38FEF87BB809120
:101080006200609163000E94EF078091600081110F
:101090001095812F0F90CF91DF911F91089581E0DE
:1010A0000E94140880E00E9414080895EF92FF92B5
:1010B0000F931F93CF93DF93082F8091620087FDDA
:1010C00063C0803418F4AC98AB9A02C0AB98AC9A69
:1010D000803419F461E00E94DC07A89AA998FF24E3
:1010E000FA94F7BA10916300177009F440C0E5B2A2
:1010F0000E944F08E5BAF7BAC02FD0E0012F10E0E8
:101100009E01002E02C0220F331F0A94E2F7982F8F
:10111000922B809160008111909598BB0E94C50729
:1011200060916300685F809162000E94EF070E94F7
:101130004F08E5BA9FEF97BB28E030E0201B310B4A
:1011400002C0D595C7952A95E2F7282F2C2B8091C0
:1011500060008111209528BB0E94C5078091620024
:101160006091630068508F5F0E94EF070CC0809110
:1011700060008111009508BB0E94C5078091620044
:101180008F5F8093620018BADF91CF911F910F910A
:10119000FF90EF9008952F923F924F925F926F923F
:1011A0007F928F929F92AF92BF92CF92DF92EF92F7
:1011B000FF920F931F93CF93DF93E82E80916700E8
:1011C00090916800E0916500F091660003960995A2
:1011D000C82E8091670090916800E0916500F091C1
:1011E000660004960995182F809167009091680019
:1011F000E0916500F091660005960995D82E509013
:101200006200209063002E2D332727FD3095812F1B
:1012100090E0281739070CF4A2C08D0D911D2817F6
:1012200039070CF09CC0E11A00E010E0FF24CE2D3D
:10123000DD27C7FDD09507C00696820F931F09953D
:10124000080F111DF3948F2D90E0209167003091CD
:101250006800E0916500F09166008C179D0764F3CB
:10126000EC2CFF2447E050E0E40EF51EC70143E0FC
:10127000959587954A95E1F749EF5FEFE40EF51EE6
:10128000382EAC01409FC001419F900D509F900DA2
:101290001124CD2CDD2446E050E0C40ED51EC80E2E
:1012A000D91E2696C9018C0F9D1F0995682E08E04E
:1012B00010E00E191F097724882488E0A82EB12C8D
:1012C00042C0402EE601C80DD11D992423C0809153
:1012D000670090916800E0916500F09166008C0FC6
:1012E0009D1F0995982FEA14FB0444F490E0042C08
:1012F00002C0959587950A94E2F7982F8091610036
:101300008F3F11F4892F02C0892F80950E945608C3
:10131000939421969614D8F2809161008F3F11F436
:1013200080E001C08FEF0E94560860916300685F03
:10133000852D0E94EF077394860C88E090E0A80E3C
:10134000B91E085F1F4F731408F4BBCF5394852D4B
:10135000860D622D0E94EF0720E030E002C021E000
:1013600030E0C901DF91CF911F910F91FF90EF9075
:10137000DF90CF90BF90AF909F908F907F906F90B5
:101380005F904F903F902F9008950F931F93CF93AE
:10139000DF93EC010091620017C08A3091F4109144
:1013A00063008091670090916800E0916500F09182
:1013B000660003960995180F802F612F0E94EF0792
:1013C00002C00E94CB082196FE018491882329F750
:1013D000DF91CF911F910F9108950F931F93CF939A
:1013E000DF93EC010091620017C08A3091F41091F4
:1013F00063008091670090916800E0916500F09132
:10140000660003960995180F802F612F0E94EF0741
:1014100002C00E94CB0821968881882331F7DF9192
:10142000CF911F910F9108950F931F93162F042FA3
:10143000687F0E94EF070E944F08482F212F30E05D
:101440000F3F59F42770307081E090E002C0880FA0
:10145000991F2A95E2F7842B0BC02770307081E02A
:1014600090E002C0880F991F2A95E2F780958423A7
:101470000E9456081F910F910895AF92BF92CF928C
:10148000DF92EF92FF920F931F93CF93DF93B82ECB
:10149000A42EE22EE394462F4770F62EF41ACE2D9A
:1014A000D0E0642F70E028E030E0C901861B970B84
:1014B000C817D9075CF42C1B3D0B8FEF90E002C0DE
:1014C000959587952A95E2F70E2D03C008E0041B39
:1014D0008FEF90E002C0880F991F6A95E2F7D82E2F
:1014E0008B2D6F2D0E94EF0710E0CD2CC0940E9431
:1014F0004F08982F8C2D892390959D21892B0E9430
:1015000056081F5FA11698F710C088E0F80E8B2DC3
:101510006F2D0E94EF0710E00E944F0880950E94F7
:1015200056081F5FA116C0F7085F202F30E0C901E1
:1015300007968C179D074CF30E1508F5C21BD30BAD
:101540008FEF90E002C0880F991FCA95E2F7E82E4E
:10155000E09488E0F80E8B2D6F2D0E94EF0710E0CD
:101560000E2D00950E944F08982F802F892390956B
:101570009E21892B0E9456081F5FA11698F7DF91C4
:10158000CF911F910F91FF90EF90DF90CF90BF9080
:10159000AF9008951F93182F80916000811741F03C
:1015A00080E060E04FE72FE30E943D0A1093600067
:1015B0001F9108959F92AF92BF92CF92DF92EF92C8
:1015C000FF920F931F93CF93DF93B82E942EE22EAA
:1015D000A02EE394462F4770F62EF41ACE2DD0E0BD
:1015E000642F70E028E030E0C901861B970BC81714
:1015F000D9075CF42C1B3D0B8FEF90E002C0959552
:1016000087952A95E2F70E2D03C008E0041B8FEFA3
:1016100090E002C0880F991F6A95E2F7D82E8B2DB3
:101620006F2D0E94EF0710E0CD2CC0940E944F0850
:101630009FEFA91611F48D2901C08C210E94560834
:101640001F5F911698F70EC088E0F80E8B2D6F2D56
:101650000E94EF0710E08A2D0E9456081F5F911626
:10166000D0F7085F202F30E0C90107968C179D073F
:101670005CF30E1508F5C21BD30B8FEF90E002C090
:10168000880F991FCA95E2F7E82EE09498E0F90ECA
:101690008B2D6F2D0E94EF0710E0FE2CF0940E941E
:1016A0004F089FEFA91611F48E2901C08F210E94C7
:1016B00056081F5F911698F7DF91CF911F910F91F8
:1016C000FF90EF90DF90CF90BF90AF909F900895E4
:1016D0000F93109262001092630010926400809346
:1016E00060008FEF84BB8FE360E00E94DC078FE334
:1016F00061E00E94DC0780EC60E00E94DC0780EC87
:1017000061E00E94DC0780E060E04FE72FE300E04B
:101710000E94DA0A80E060E00E94EF070F910895CE
:101720002F923F924F925F926F927F928F929F92F1
:10173000AF92BF92CF92DF92EF92FF920F931F93DF
:10174000DF93CF93CDB7DEB72C970FB6F894DEBFFB
:101750000FBECDBF8F83688749872A87C02EDD24BF
:10176000C601880F991F22273327281B390B3E8378
:101770002D832D5F3F4F3C872B873F80300E262ED9
:10178000200E342F8F81380F3B83301B3C839A858A
:10179000960F9983901B9A83432C522C632E792E9B
:1017A000AA24BB24882499241C2D022D0C19842DD5
:1017B000602F4E2D0E94140AF32CFC188F2D652DDE
:1017C0004E2D0E94140A862D602F4E2D0E94140A61
:1017D0000C810C0D802F652D4E2D0E94140AFA816C
:1017E0001F0F862D612F4E2D0E94140A802F672D0A
:1017F0004E2D0E94140A842D612F4E2D0E94140A32
:101800008F2D672D4E2D0E94140A2B853C8537FFA6
:1018100007C02A5F3F4F280D391D3C872B8715C015
:101820008B859C850A969C878B87C5018C199D09A1
:10183000880F991F880F991FEB85FC85E80FF91F0A
:10184000FC87EB870894C108D1080894A11CB11C3F
:101850004A945A946394739424E030E0820E931E69
:10186000CA14DB040CF0A0CF1D81F984F10E832D86
:1018700068854F2D20E00E2D0E94DA0A832D6981A4
:101880004F2D20E00E94DA0A3A85130F8F81622DD6
:1018900040E0212F0E94DA0A8B81622D40E0212F47
:1018A0000E94DA0A2C960FB6F894DEBF0FBECDBFA9
:1018B000CF91DF911F910F91FF90EF90DF90CF902C
:1018C000BF90AF909F908F907F906F905F904F9060
:1018D0003F902F900895CF92DF92EF92FF920F9357
:1018E0001F93182FF62ED42EC22E20E00E94DA0A63
:1018F0006C2D6F0D812F4D2D20E00E94DA0A812F73
:101900006F2D40E02C2D0E94DA0A8D2D810F6F2D56
:1019100040E02C2D0E94DA0A1F910F91FF90EF906A
:10192000DF90CF9008954F925F926F927F928F9247
:101930009F92AF92BF92CF92DF92EF92FF920F935E
:101940001F93CF93DF93D82EC62EF42EE22E502E67
:10195000841751F4261710F4E62EC22EEC188D2DA4
:101960006C2D40E02E2D0BC0621769F4481710F45F
:10197000FD2CD42EFD188D2D6C2D4F2D20E0052D26
:101980000E94DA0AD6C0622F70E04C2D50E02F2D55
:1019900030E0281B3109CB01841B950B821793077C
:1019A00034F4461B570B421753070CF462C0FD1466
:1019B00030F48F2DFD2CD82E8E2DEC2CC82E4F2CD4
:1019C0004D18EE2DF0E02C2D30E04F01821A930AD5
:1019D000A42CBB2488EC90E0AC01849EC001859EC1
:1019E000900D949E900D1124B5010E946D0EEB0197
:1019F0000C2DFF2439016E1A7F0A8F2D90E08C9FE9
:101A000090018D9F300D9C9F300D1124C90168EC11
:101A100070E00E946D0E162F1C0DC90168EC70E07D
:101A20000E946D0E8436910514F01F5F05C05FEFB4
:101A30008D3995070CF411504F2D4D0D842F602FCB
:101A4000212F052D0E94930C8A149B042CF0CE1498
:101A500018F4012F0F5F09C06A147B042CF0EC14FA
:101A600018F4012F015001C0012FF3944F1428F6F0
:101A700060C0EC1428F48F2DFD2CD82EEC2CC62E33
:101A80004E2C4C18EF2DF0E02D2D30E04F01821A36
:101A9000930AA42CBB2488EC90E0AC01849EC00186
:101AA000859E900D949E900D1124B5010E946D0E9F
:101AB000EB014D2DEE2439016E1A7F0A8E2D90E038
:101AC0008C9F90018D9F300D9C9F300D1124C9017A
:101AD00068EC70E00E946D0E162F1D0DC90168ECB8
:101AE00070E00E946D0E8436910514F01F5F05C0F2
:101AF0005FEF8D3995070CF411502E2D2C0D842F8E
:101B0000622F412F052D0E94930C8A149B042CF008
:101B1000DF1418F4412F4F5F09C06A147B042CF0C6
:101B2000FD1418F4412F415001C0412FE3944E148D
:101B300028F6DF91CF911F910F91FF90EF90DF90EA
:101B4000CF90BF90AF909F908F907F906F905F905D
:101B50004F9008950F931F93CF93DF93C4E5D0E088
:101B600080E060E00E94EF0708EC10E0FE012196A3
:101B7000E4918E2F0E945608C8010197F1F784E086
:101B8000C435D80799F7DF91CF911F910F91089530
:101B9000CF92DF92EF920F9387E4C82E87E0D82E82
:101BA00084E594E0B6014FEF0E944A078FE06AE0B7
:101BB0000E94EF078EE29EE00E94C50985E065E085
:101BC00045E724E108E0EE24EA940E94900B88E8BF
:101BD00099E0B6014FEF0E944A0785E06EE10E944E
:101BE000EF0786EE9DE00E94C5090F91EF90DF9010
:101BF000CF9008950F9380E00E94680B80E29EE4EE
:101C00000197F1F70E94C80D80E197E228EC30E0DF
:101C1000F9013197F1F70197D9F780E060E04FE7DC
:101C20002FE300E00E94DA0A84E68A95F1F780E566
:101C30006FE00E94EF078EE59EE00E94C50984E6F2
:101C400069E10E94EF078AE59EE00E94C50980E5F0
:101C500063E20E94EF0786E59EE00E94C50984E6E4
:101C60006DE20E94EF0782E59EE00E94C50984E5CF
:101C700094E067E477E04FEF0E944A0781E061E07B
:101C80000E94EF0786E49EE00E94C50981E06FE0B4
:101C900046E42DE20FEF0E946B0C82E062E20E94AC
:101CA000EF078AE39EE00E94C50980E197E228ECF5
:101CB00030E0F9013197F1F70197D9F781E06FE052
:101CC00046E42DE200E00E94DA0A81E06FE046E49B
:101CD0002DE20FEF0E946B0CFFCF97FB092E07261A
:101CE0000AD077FD04D00CD006D000201AF47095ED
:101CF00061957F4F0895F6F7909581959F4F0895D0
:101D0000AA1BBB1B51E107C0AA1FBB1FA617B70721
:101D100010F0A61BB70B881F991F5A95A9F780953D
:0C1D20009095BC01CD010895F894FFCF10
:00000001FF
